:100000001EC0A3C0A2C0A1C0A0C09FC09EC09DC072
:100010009CC09BC09AC099C098C056C496C095C059
:1000200094C093C092C091C090C08FC08EC08DC04C
:100030008CC08BC08AC089C088C087C0650414BECC
:10004000E3E6F0E0808188628083E2E6F0E0808190
:100050008B608083E0E7F0E08081866F8083579A31
:10006000679AE0E6F0E080818260808380E288B970
:1000700086E885B911241FBECFEFD2E0DEBFCDBF29
:1000800011E0A0E0B1E0EEE1F9E102C005900D92CF
:10009000A632B107D9F722E0A6E2B1E001C01D9275
:1000A000AD34B207E1F710E0CFE1D0E003C0219713
:1000B000FE019DD9CE31D107D1F780914D02853017
:1000C00018F48430D9F021C010924D02CA9B04C0AC
:1000D00081E080934D021CC0809160008460809319
:1000E000600082E089B92E99FECF86B197B189333D
:1000F000924070F080914D02843018F010924D02C1
:1001000007C08F5F80934D0203C08F5F80934D02C5
:10011000D29ADA9A8AB38F7A8ABBDC98DE9888E022
:100120008A95F1F7CE9B09C0CC9B07C080E091E097
:100130009093300180932F0106C081E391E090936A
:10014000300180932F011FD4CACB5ACFFF920F9357
:100150001F93CF93DF93AC01DC0113969FB7789484
:1001600085B7806285BF88952E99FDCF85B78F7D35
:1001700085BF9FBF06B117B1FA01ED57FF4F8081D0
:10018000918104969C012A1B3B0B2D3731050CF005
:100190004AC091838083DC0113961C930E931297BF
:1001A0009C911196FC901197BA0167577F4FEB0114
:1001B000E881F981AE17BF07C9F14B575F4FEB01DB
:1001C00081E00BC0EB0168817981E417F50711F13B
:1001D00080E0EF010190F081E02D20813181A217B4
:1001E000B307A9F0228133812017310748F4288111
:1001F000398111963C932E93B983A88310E000E0D7
:100200008111E0CFE417F50729F081E0E2CF908378
:10021000F182E8CFFB0182819381DF91CF911F9121
:100220000F91FF900895B183A083B6CF9883F98290
:10023000E92FFF2DC2CFFF920F931F93CF93DF9330
:10024000AC01DC0115969FB7789485B7806285BFB5
:1002500088952E99FDCF85B78F7D85BF9FBF06B14D
:1002600017B1FA01EB57FF4F8081918104969C01F1
:100270002A1B3B0B2D3731050CF04AC0918380833C
:10028000DC0113961C930E9312979C911196FC908F
:100290001197BA0165577F4FEB01E881F981AE17DD
:1002A000BF07C9F149575F4FEB0181E00BC0EB017C
:1002B00068817981E417F50711F180E0EF01019081
:1002C000F081E02D20813181A217B307A9F02281AE
:1002D00033812017310748F42881398111963C93E6
:1002E0002E93B983A88310E000E08111E0CFE417DA
:1002F000F50729F081E0E2CF9083F182E8CFFB019E
:1003000082819381DF91CF911F910F91FF9008958A
:10031000B183A083B6CF9883F982E92FFF2DC2CF96
:10032000CF92DF92EF92FF921F93CF93DF939C01C6
:10033000DC0113969FB7789485B7806285BF889556
:100340002E99FDCF85B78F7D85BF9FBF66B177B1F1
:10035000F901ED57FF4F808191810496AC014A1B52
:100360005B0B4D3751050CF043C091838083DC015A
:1003700013967C936E9312979C9111961C911197F2
:10038000690189E8C80ED11CE601E881F981AE1740
:10039000BF07E1F12B573F4FA60181E00BC0E601FB
:1003A000C880D980E217F30731F180E0AF010190F6
:1003B000F081E02DE080F180AE15BF05B1F0E28064
:1003C000F380E616F70650F4EA0168817981119608
:1003D0007C936E93B983A88370E060E08111DFCFD6
:1003E000E217F30741F081E0E1CF90831183E7CF7B
:1003F000B183A083BDCFF60182819381DF91CF913C
:100400001F91FF90EF90DF90CF900895988319830C
:10041000E92FF12FBFCFCF92DF92EF92FF920F9390
:100420001F93CF93DF938C016C0182E0C80ED11C27
:1004300085B7877E85BF2B9AD80114968C9189B990
:1004400030E1E32EF12CD0E0C0E0D8011296ED911E
:10045000FC910190F081E02DC6010995C80FD91FCC
:10046000B1E0EB1AF10889F72B98CE0192958295AD
:100470008F7089279F7089278351DF91CF911F91BA
:100480000F91FF90EF90DF90CF90089528E833E12F
:1004900088E094E004C02150310909F47AC0D69A6A
:1004A000482F4A95F1F7D49A482F4A95F1F7D698F4
:1004B000482F4A95F1F7D498482F4A95F1F7D49AE6
:1004C000482F4A95F1F7D698482F4A95F1F7D498D6
:1004D000482F4A95F1F7D49A482F4A95F1F7D698C4
:1004E000482F4A95F1F7D498482F4A95F1F7D49AB6
:1004F000482F4A95F1F7D69A482F4A95F1F7D498A4
:10050000482F4A95F1F7D49A482F4A95F1F7D69893
:10051000482F4A95F1F7D498482F4A95F1F7D49A85
:10052000482F4A95F1F7D698482F4A95F1F7D49875
:10053000482F4A95F1F7D49A482F4A95F1F7D69A61
:10054000482F4A95F1F7D498482F4A95F1F7D49A55
:10055000482F4A95F1F7D69A482F4A95F1F7D49843
:10056000482F4A95F1F7D49A482F4A95F1F7D69833
:10057000482F4A95F1F7D498492F4A95F1F759B386
:10058000492F4A95F1F7D49A482F4A95F1F756FD2D
:1005900082CFD69A88E0982F9A95F1F7D498982F21
:1005A0009A95F1F7D49A982F9A95F1F7D69A982FB1
:1005B0009A95F1F7D498982F9A95F1F7D49A982FA5
:1005C0009A95F1F7D69A982F9A95F1F7D498982F93
:1005D0009A95F1F7D49A982F9A95F1F7D69A982F81
:1005E0009A95F1F7D498982F9A95F1F7D49A982F75
:1005F0009A95F1F7D69A982F9A95F1F7D498982F63
:100600009A95F1F7D49A982F9A95F1F7D69A982F50
:100610009A95F1F7D498982F9A95F1F7D49A982F44
:100620009A95F1F7D69A982F9A95F1F7D498982F32
:100630009A95F1F7D49A982F9A95F1F7D69A982F20
:100640009A95F1F7D498982F9A95F1F7D49A982F14
:100650009A95F1F7D698982F9A95F1F7D49824E0C7
:10066000922F9A95F1F799B3922F9A95F1F7D49A20
:10067000982F9A95F1F7D69A982F9A95F1F7D498E2
:10068000982F9A95F1F7D69890E19A95F1F7D69A26
:10069000982F9A95F1F7D49A982F9A95F1F7D698C2
:1006A000982F9A95F1F7D498982F9A95F1F7D49AB4
:1006B000982F9A95F1F7D698982F9A95F1F7D498A4
:1006C000982F9A95F1F7D49A982F9A95F1F7D69892
:1006D000982F9A95F1F7D498982F9A95F1F7D49A84
:1006E000982F9A95F1F7D69A982F9A95F1F7D49872
:1006F000982F9A95F1F7D49A982F9A95F1F7D69862
:10070000982F9A95F1F7D498982F9A95F1F7D49A53
:10071000982F9A95F1F7D698982F9A95F1F7D49843
:10072000982F9A95F1F7D49A982F9A95F1F7D69A2F
:10073000982F9A95F1F7D498982F9A95F1F7D49A23
:10074000982F9A95F1F7D698982F9A95F1F7D49813
:10075000982F9A95F1F7D49A982F9A95F1F7D69801
:10076000982F9A95F1F7D498922F9A95F1F799B31B
:10077000922F9A95F1F7D49A982F9A95F1F7D698E7
:10078000982F9A95F1F7D498922F9A95F1F799B3FB
:10079000322F3A95F1F7D49A382F3A95F1F78A9596
:1007A000F1F7D4982A95F1F796FB882780F9880FFE
:1007B000CE99816094E0292F2A95F1F7D49A28E008
:1007C000322F3A95F1F72A95F1F7D4989A95F1F7E7
:1007D000880FCE99816094E0292F2A95F1F7D49A59
:1007E00028E0322F3A95F1F72A95F1F7D4989A95A7
:1007F000F1F7880FCE99816094E0292F2A95F1F7BF
:10080000D49A28E0322F3A95F1F72A95F1F7D49847
:100810009A95F1F7880FCE99816094E0292F2A9557
:10082000F1F7D49A28E0322F3A95F1F72A95F1F7AB
:10083000D4989A95F1F7880FCE99816094E0292F8A
:100840002A95F1F7D49A28E0322F3A95F1F72A95B4
:10085000F1F7D4989A95F1F7880FCE99816094E0DA
:10086000292F2A95F1F7D49A28E0322F3A95F1F7FB
:100870002A95F1F7D4989A95F1F7880FCE9981606F
:1008800024E0922F9A95F1F7D49A98E0392F3A956F
:10089000F1F7D69A392F3A95F1F7D498392F3A953E
:1008A000F1F7D49A2A95F1F7D69A292F2A95F1F7DC
:1008B000D69A292F2A95F1F7D4989A95F1F7D698D8
:1008C00090E19A95F1F708951895EAECF0E08081AF
:1008D0008C7C83628083E9ECF0E08081807E89609B
:1008E0008083E8E6F0E0808180628083D79AD09AA6
:1008F000E0ECF1E081E0828384E291E09183808307
:10090000E3ECF1E080E8DF01982F1D929A95E9F77A
:10091000F0934402E0934302E5E4F2E01182108296
:100920001092480210924702F0934A02E093490263
:1009300010924C0210924B02E1E3F1E09CE09483B0
:1009400026E131E0318320832EE131E033832283BD
:10095000E6E3F1E0DF011D928A95E9F7F093B70134
:10096000E093B601E8EBF1E0118210821092BB0136
:100970001092BA01F093BD01E093BC011092BF0147
:100980001092BE010895CDB7DEB767970FB6F89401
:10099000DEBF0FBECDBF85B7877E85BF2B9A809106
:1009A000C20189B904E010E070E060E083ECC82E79
:1009B00081E0D82E9FB7789485B7806285BF8895EF
:1009C0002E99FDCF85B78F7D85BF9FBF46B157B1AB
:1009D00080914302909144029C012C5F3F4F49015A
:1009E0008F5B91408D3791050CF032C130934402FA
:1009F00020934302D40113965C934E9312979C91DB
:100A00001196FC90E0914902F0914A02E815F9052F
:100A100009F427C181E0A9E46A2EA2E07A2E9301AD
:100A20000CC0D9012D913C91B2E0E534FB0729F1CE
:100A300080E03F010190F081E02DA080B180A814FA
:100A4000B904C1F0A280B380A416B50658F4D3014E
:100A50004D915C91D4014D935C93D3018D929C9206
:100A600050E040E08111DDCF82E0E534F80729F065
:100A700081E0DFCF9083F182E5CFD90112968D918D
:100A80009C91680F791F0150110909F093CF2B98A1
:100A900076956795660F771F660F771F653D7D40DA
:100AA00008F4D3C080912F0190913001DC01ED91C9
:100AB000FC910190F081E02D099583330CF0C5C0C5
:100AC000E0914D02F0E0EE0FFF1FE85FFE4F8081E6
:100AD00091818C0130E020E009831A832B833C83D1
:100AE000C901B8018CD5462E7D838E839F8380916A
:100AF0002F01909130011A8A1B8A8153914009F489
:100B000071C41C8A1D8A812C912CA12CB12CC12C62
:100B1000312C90E8292E0FE30983DD24D3941E861F
:100B20001F86188A198A2FE3522EDD2009F422C26B
:100B30009401A501C9823A822B825C8269817A8103
:100B40008B819C815AD49B01AC015F7729833A83C6
:100B50004B835C8320E030E040E052E469817A819D
:100B60008B819C81AFD487FF23C385B7877E85BFE8
:100B70002B9A8091C20189B930E020E060E470E0F6
:100B80009FB7789485B7806285BF88952E99FDCFF1
:100B900085B78F7D85BF9FBF06B117B18091430296
:100BA00090914402DC0114968F5B91408D37910542
:100BB0000CF0EAC2B0934402A093430213961C9334
:100BC0000E9312975C911196FC901197E091490257
:100BD000F0914A02EA17FB0709F4CFC24D2D89E4D0
:100BE000A82E82E0B82EC501B986A8864D0110C096
:100BF000A885B9850D90BC91A02DB987A887B2E0D2
:100C0000E534FB07C1F140E0CF010190F081E02D18
:100C1000A080B180A814B90459F1A280B380A016B5
:100C2000B10658F4DC010D911C91D4010D931C9375
:100C3000DC018D929C9210E000E04111D9CF42E09E
:100C4000E534F407C1F04D2DDFCF90E080E047D6CA
:100C5000D0924402C0924302B3EC8B2EB1E09B2EA3
:100C6000C9CE90934902F0924A02E92FFF2DD2CECD
:100C70005083F182D2CFA885B98512968D919C912F
:100C8000280F391F6150710909F07ACF2B9889011B
:100C90001695079516950795169507951F8B0E8B3C
:100CA00020E030E040E551E4288739874A875B87B8
:100CB0000F3C1C4058F420E030E040E450E46981EF
:100CC0007A818B819C81FED387FDBFCF4E895F895E
:100CD00045545D405F8B4E8BCA01092E000CAA0B58
:100CE000BB0B89839A83AB83BC83BC01CD0189D4C0
:100CF0006C877D873C012E853F85488959896885A9
:100D000079858A859B857AD32C853D85A301698366
:100D10007A838B839C8369817A818B819C812BD59B
:100D200069837A838B839C8369817A818B819C819F
:100D300035D44B017A836983E12CF12C87012C8512
:100D40003D85A30160E87FEF8FE39FE395D43B01EE
:100D50008C0180912B0190912C01D4011A161B0655
:100D60000CF0E7C224E736EA2819390928173907B1
:100D700008F008C3E4E7F6EAF0932C01E0932B01B6
:100D800060E074E786E297E469827A820B831C83D1
:100D9000E980FA800B811C819B01AC0168E471EC55
:100DA00083EA9CE369D48B01B82EF92E80912D0142
:100DB00090912E01AE89BF89A81BB90B9D01BB0F75
:100DC000440B550B29833A834B835C83CA01B901D9
:100DD00018D409831A83BB82FC82E980FA800B81D4
:100DE0001C819B01AC0160E871E080EC9EEB44D477
:100DF0004E895F8950932E0140932D0169837A8338
:100E00008B839C8369817A818B819C811FD53B0177
:100E10008C01E0914D02F0E0EE0FFF1FE85FFE4F06
:100E2000808191819F8B8E8B9C0150E040E02983D3
:100E30003A834B835C83CA01B901E1D34B015C0166
:100E40009B01AC0169827A820B831C8369817A8160
:100E50008B819C818CD418166CF020E030E040E847
:100E60005FE369817A818B819C812CD34301580196
:100E700087FDAAC29401A50149828D818A839E8142
:100E80009B83AF81AC8369817A818B819C816FD494
:100E900034018501181624F0642C7D800E811F8199
:100EA000EE89FF89E130F14020F040E051E05F8BB6
:100EB0004E8B8E899F8901979C0150E040E02983E9
:100EC0003A834B835C83CA01B90199D32C2D332D0E
:100ED000422D552D69837A838B839C8369817A8126
:100EE0008B819C8148D49301A80169837A838B8389
:100EF0009C8369817A818B819C8180D2762EC72EDA
:100F00008C01AE89BF89CD01B0E0A0E089839A83CE
:100F1000AB83BC83BC01CD0172D39B01AC01798250
:100F2000CA820B831C8369817A818B819C81CED29A
:100F3000C62E372E282E592E69837A838B839C8365
:100F400069817A818B819C812ED39B01CB01892B76
:100F500009F422C1D89A6115744008F4C9C18FEF11
:100F600093E09093C3008093C200DF9A81E0D8267B
:100F700009F0DECD80912F0190913001DC01ED91DF
:100F8000FC910190F081E02D099587340CF05DCE45
:100F9000B2E3B81BBE830B2F002E000C110B220BEB
:100FA000330B09831A832B833C83C901B80129D3EE
:100FB000462E7D833C012A893B894C895D89688561
:100FC00079858A859B851AD2242D3D81A301698369
:100FD0007A838B839C8369817A818B819C81CBD33B
:100FE00069837A838B839C8369817A818B819C81DD
:100FF000D5D26983E12CF12C8701242D3D81A301F9
:1010000060E070E080E792E437D33B01F82E492E90
:10101000409126015091270160912801709129018A
:101020001981812F012E000C990BAA0BBB0B1116F5
:101030000CF08FC104E313E821E030E0081B190B2A
:101040002A0B3B0B041715072607370708F05BC16F
:1010500024E333E841E050E0209326013093270158
:10106000409328015093290160E07AE981EC97E4EC
:1010700069827A82FB824C82E980FA800B811C8132
:101080009B01AC016FE672E183E09CE3F5D2762E22
:10109000072F182F9D832E81822F220F990B2091CD
:1010A0002A01821B910927FD93959C01990F440BFE
:1010B000550B29833A834B835C83CA01B901A1D2C2
:1010C00079820A831B830D810C83E980FA800B816E
:1010D0001C819B01AC0160E070E080EF91ECCCD210
:1010E0001E8110932A0169837A838B839C83698193
:1010F0007A818B819C81AAD33B018C01E0914D02C6
:10110000F0E0EE0FFF1FE85FFE4F208131813F8B43
:101110002E8BC901B0E0A0E089839A83AB83BC83A6
:10112000B901CD016CD2462E7D838E839F83262FFD
:10113000372FAC0169827A820B831C8369817A81A3
:101140008B819C8114D318167CF020E030E040E8BD
:101150005FE369817A818B819C81B4D187FD3BC13A
:10116000462C7D820E831F83FA89FE870B890F87A9
:101170001C89188B2D89298B7DCE50934902F092C2
:101180004A02E52FFF2D2ACD43EC51E05093440253
:1011900040934302DA0112CDD8981092C300109206
:1011A000C200809166008F7B80936600DF98DECE60
:1011B00085B7877E85BF2B9A8091C20189B930E0BF
:1011C00020E064E070E09FB7789485B7806285BFC7
:1011D00088952E99FDCF85B78F7D85BF9FBF06B1BE
:1011E00017B18091430290914402DC0114968F5B09
:1011F00091408D3791050CF06CC0B0934402A093E0
:10120000430213961C930E9312975C911196FC90D7
:101210001197E0914902F0914A02EA17FB0709F49D
:1012200060C04D2D89E4A82E82E0B82EC501B98694
:10123000A8864D0110C0A885B9850D90BC91A02D40
:10124000B987A887B2E0E534FB0711F140E0CF0190
:101250000190F081E02DA080B180A814B904B1F113
:10126000A280B380A016B10658F4DC010D911C9148
:10127000D4010D931C93DC018D929C9210E000E050
:101280004111D9CF42E0E534F40711F04D2DDFCF05
:10129000A885B98512968D919C91280F391F6150B0
:1012A000710909F090CF2B98369527958901000F89
:1012B000111F000F111F1F8B0E8B20E030E040E844
:1012C0005FE3288739874A875B87F2CC5083F182B6
:1012D000C7CF43EC51E05093440240934302DA01FC
:1012E00090CF50934902F0924A02E52FFF2D99CFFB
:1012F0003093C3002093C200809166008064809385
:101300006600DF9833CE8A019B01080F191F2A1F40
:101310003B1F09831A832B833C8300932601109380
:1013200027012093280130932901C901B80167D111
:101330009FCE22273327281939098217930798F55A
:1013400010922C0110922B0160E070E080E090E0A0
:101350001BCD002711279801081B190B2A0B3B0BEB
:10136000401751076207730770F61092260110921A
:101370002701109228011092290160E070E080E0BE
:1013800090E076CE880E991E90922C0180922B01CF
:10139000940150E040E029833A834B835C83CA0187
:1013A000B4012DD1F1CC880E991E90922C0180921F
:1013B0002B01C401B0E0A0E089839A83AB83BC8396
:1013C000B401CD011CD1E0CC812C912C90E8A92E48
:1013D0002FE3B22E4FCD412C1D82B0E8BE83EFE348
:1013E000EF83C2CE20E42C8B30E43D8B8CCBEE0F10
:1013F000FF1F0590F491E02D09945058BB27AA27B0
:101400000ED07BC16CD130F071D120F031F49F3F10
:1014100011F41EF461C10EF4E095E7FB57C1E92F0A
:101420007DD180F3BA17620773078407950718F018
:1014300071F49EF595C10EF4E0950B2EBA2FA02DF8
:101440000B01B90190010C01CA01A0011124FF2771
:10145000591B99F0593F50F4503E68F11A16F0406C
:10146000A22F232F342F4427585FF3CF469537956B
:101470002795A795F0405395C9F77EF41F16BA0B30
:10148000620B730B840BBAF09150A1F0FF0FBB1FDE
:10149000661F771F881FC2F70EC0BA0F621F731F27
:1014A000841F48F4879577956795B795F7959E3F84
:1014B00008F0B3CF9395880F08F09927EE0F979512
:1014C00087950895DFD008F481E008950CD015C108
:1014D0000DD140F004D130F021F45F3F19F0F6C097
:1014E00051113FC1F9C01AD198F39923C9F355237B
:1014F000B1F3951B550BBB27AA2762177307840707
:1015000038F09F5F5F4F220F331F441FAA1FA9F3BC
:1015100033D00E2E3AF0E0E830D091505040E695AE
:10152000001CCAF729D0FE2F27D0660F771F881F0F
:10153000BB1F261737074807AB07B0E809F0BB0BFE
:10154000802DBF01FF2793585F4F2AF09E3F510522
:1015500068F0BCC006C15F3FECF3983EDCF38695B3
:1015600077956795B795F7959F5FC9F7880F911D98
:101570009695879597F90895E1E0660F771F881F84
:10158000BB1F621773078407BA0720F0621B730B37
:10159000840BBA0BEE1F88F7E095089504D0689489
:1015A000B111DFC00895C2D088F09F5790F0B92FD5
:1015B0009927B751A0F0D1F0660F771F881F991FA8
:1015C0001AF0BA95C9F712C0B13081F0C9D0B1E0B4
:1015D0000895C6C0672F782F8827B85F39F0B93FC4
:1015E000CCF3869577956795B395D9F73EF49095AA
:1015F0008095709561957F4F8F4F9F4F0895E89428
:1016000009C097FB3EF490958095709561957F4F4A
:101610008F4F9F4F9923A9F0F92F96E9BB279395F8
:10162000F695879577956795B795F111F8CFFAF408
:10163000BB0F11F460FF1BC06F5F7F4F8F4F9F4F39
:1016400016C0882311F096E911C0772321F09EE897
:10165000872F762F05C0662371F096E8862F70E0FD
:1016600060E02AF09A95660F771F881FDAF7880FD7
:101670009695879597F9089589D09701A801AA278B
:10168000CEDE3BC0990F0008550FAA0BE0E8FEEF35
:1016900016161706E807F907C0F012161306E40736
:1016A000F50798F0621B730B840B950B39F40A262F
:1016B00061F0232B242B252B21F408950A2609F40D
:1016C000A140A6958FEF811D811D089597F99F6711
:1016D00080E870E060E008959FEF80EC08950024BA
:1016E0000A941616170618060906089500240A9487
:1016F00012161306140605060895092E0394000C0D
:1017000011F4882352F0BB0F40F4BF2B11F460FF9B
:1017100004C06F5F7F4F8F4F9F4F089557FD9058C4
:10172000440F551F59F05F3F71F04795880F97FBA5
:10173000991F61F09F3F79F087950895121613065F
:101740001406551FF2CF4695F1DF08C0161617068E
:101750001806991FF1CF86957105610508940895C3
:10176000E894BB2766277727CB0197F908958ADF8E
:1017700008F48FEF08950AD0C0CFB1DF28F0B6DFAC
:1017800018F0952309F0A2CFA7CFEBCFC7DFA8F3BE
:101790009923D9F35523C9F3950F50E0551FAA2774
:1017A000EE27FF27BB2700240894679520F4E20F5B
:1017B000F31FB41F0A1E220F331F441FAA1F669572
:1017C000A9F7779530F4F30FB41F0A1E121E08F420
:1017D0006395330F441FAA1F221F769599F78795AB
:1017E00020F4B40F0A1E121E631F440FAA1F221FEB
:1017F000331F8695A9F7862F712D602D11249F57D1
:1018000050408AF0E1F088234AF0EE0FFF1FBB1F23
:10181000661F771F881F91505040A9F79E3F5105C2
:1018200070F054CF9ECF5F3FECF3983EDCF386958B
:1018300077956795B795F795E7959F5FC1F7FE2B6D
:10184000880F911D9695879597F908956FDFE0F0C1
:101850009E37D8F09639B8F49E3848F4672F782F21
:101860008827985FF9CF86957795679593959539F1
:10187000D0F3B62FB1706B0F711D811D20F48795C9
:1018800077956795939502C01CC06BCF882371F440
:10189000772321F09850872B762F07C0662311F409
:1018A00099270DC09051862B70E060E02AF09A9540
:1018B000660F771F881FDAF7880F9695879597F937
:1018C00008959F3F31F0915020F487957795679563
:1018D000B795880F911D9695879597F90895F89477
:1018E000D8981092C3001092C200E6E6F0E0808122
:1018F0008F7B8083DF982F9885B7877E806185BF37
:10190000E0E7F0E090818FEF808385B7806285BF4C
:0E191000889585B78F7D85BF9083F894FFCFB3
:10191E000601000000004602010009002B00AB008A
:10192E005503000000000B021B01FEFF000090019A
:06193E0000000000A600FD
:02000004008278
:03000000E2D6FB4A
:00000001FF
